:020000040800F2
:1000000000500020491F0008B51E0008B71E000858
:10001000B91E0008BB1E0008BD1E0008000000003D
:10002000000000000000000000000000BF1E0008EB
:10003000C11E000800000000C31E0008C51E000805
:10004000911F0008911F0008911F0008911F0008D0
:10005000911F0008911F0008911F0008911F0008C0
:10006000911F0008911F0008911F0008911F0008B0
:10007000911F0008911F0008911F0008911F0008A0
:10008000911F0008911F0008911F0008911F000890
:10009000911F0008911F0008911F0008911F000880
:1000A000911F0008911F0008911F0008911F000870
:1000B000911F0008911F0008911F0008911F000860
:1000C000911F0008911F0008911F0008911F000850
:1000D000911F0008C91E0008911F0008911F000809
:1000E000911F0008911F0008911F000800000000E8
:1000F0000000000000000000000000000000000000
:0C01000000000000000000005FF808F1A3
:10010C0010B5054C237833B9044B13B10448AFF345
:10011C0000800123237010BD5C0000200000000053
:10012C007C45000808B5034B1BB103490348AFF3EA
:10013C00008008BD00000000600000207C45000825
:10014C0080F0004002E000BF81F0004142001FBF80
:10015C005FEA410392EA030F7FEA226C7FEA236C89
:10016C006AD04FEA1262D2EB1363C1BFD21841407E
:10017C0048404140B8BF5B42192B88BF704710F014
:10018C00004F40F4000020F07F4018BF404211F0B7
:10019C00004F41F4000121F07F4118BF494292EA1F
:1001AC00030F3FD0A2F1010241FA03FC10EB0C004B
:1001BC00C3F1200301FA03F100F0004302D54942D8
:1001CC0060EB4000B0F5000F13D3B0F1807F06D385
:1001DC0040084FEA310102F10102FE2A51D2B1F17D
:1001EC00004F40EBC25008BF20F0010040EA030072
:1001FC007047490040EB0000013A28BFB0F5000FF2
:10020C00EDD2B0FA80FCACF1080CB2EB0C0200FAA7
:10021C000CF0AABF00EBC25052421843BCBFD040F6
:10022C001843704792F0000F81F4000106BF80F470
:10023C0000000132013BB5E74FEA41037FEA226C33
:10024C0018BF7FEA236C21D092EA030F04D092F0FE
:10025C00000F08BF0846704790EA010F1CBF002032
:10026C00704712F07F4F04D1400028BF40F000408F
:10027C00704712F100723CBF00F50000704700F0AF
:10028C00004343F0FE4040F4000070477FEA2262D6
:10029C0016BF08467FEA23630146420206BF5FEAA7
:1002AC00412390EA010F40F4800070474FF00003A7
:1002BC0004E000BF10F0004348BF40425FEA000C6E
:1002CC0008BF704743F0964301464FF000001CE016
:1002DC0050EA010208BF70474FF000030AE000BF6C
:1002EC0050EA010208BF704711F0004302D54042AA
:1002FC0061EB41015FEA010C02BF8446014600201C
:10030C0043F0B64308BFA3F18053A3F50003BCFA36
:10031C008CF2083AA3EBC25310DB01FA02FC6344E3
:10032C0000FA02FCC2F12002BCF1004F20FA02F2EA
:10033C0043EB020008BF20F00100704702F12002DD
:10034C0001FA02FCC2F1200250EA4C0021FA02F23E
:10035C0043EB020008BF20EADC7070474FF0FF0C43
:10036C001CEAD0521EBF1CEAD15392EA0C0F93EA3E
:10037C000C0F6FD01A4480EA010C400218BF5FEAE0
:10038C0041211ED04FF0006343EA501043EA511153
:10039C00A0FB01310CF00040B1F5000F3EBF49004D
:1003AC0041EAD3715B0040EA010062F17F02FD2A51
:1003BC001DD8B3F1004F40EBC25008BF20F0010034
:1003CC00704790F0000F0CF0004C08BF49024CEA4B
:1003DC00502040EA51207F3AC2BFD2F1FF0340EADD
:1003EC00C250704740F400004FF00003013A5DDC4E
:1003FC0012F1190FDCBF00F000407047C2F100028F
:10040C00410021FA02F1C2F1200200FA02FC5FEA7B
:10041C00310040F1000053EA4C0308BF20EADC70C5
:10042C00704792F0000F00F0004C02BF400010F437
:10043C00000F013AF9D040EA0C0093F0000F01F0E4
:10044C00004C02BF490011F4000F013BF9D041EA06
:10045C000C018FE70CEAD15392EA0C0F18BF93EA08
:10046C000C0F0AD030F0004C18BF31F0004CD8D132
:10047C0080EA010000F00040704790F0000F17BFB9
:10048C0090F0004F084691F0000F91F0004F14D0FF
:10049C0092EA0C0F01D142020FD193EA0C0F03D157
:1004AC004B0218BF084608D180EA010000F000405A
:1004BC0040F0FE4040F40000704740F0FE4040F435
:1004CC00400070474FF0FF0C1CEAD0521EBF1CEAD4
:1004DC00D15392EA0C0F93EA0C0F69D0A2EB0302F2
:1004EC0080EA010C49024FEA402037D04FF080538C
:1004FC0043EA111143EA10130CF000408B4238BF51
:10050C005B0042F17D024FF4000C8B4224BF5B1A5E
:10051C0040EA0C00B3EB510F24BFA3EB510340EAAC
:10052C005C00B3EB910F24BFA3EB910340EA9C005A
:10053C00B3EBD10F24BFA3EBD10340EADC001B01CA
:10054C0018BF5FEA1C1CE0D1FD2A3FF650AF8B426E
:10055C0040EBC25008BF20F0010070470CF0004C7B
:10056C004CEA50207F32C2BFD2F1FF0340EAC250A6
:10057C00704740F400004FF00003013A37E792F067
:10058C00000F00F0004C02BF400010F4000F013AC5
:10059C00F9D040EA0C0093F0000F01F0004C02BFC0
:1005AC00490011F4000F013BF9D041EA0C0195E729
:1005BC000CEAD15392EA0C0F08D142027FF47DAFC2
:1005CC0093EA0C0F7FF470AF084676E793EA0C0FB2
:1005DC0004D14B023FF44CAF08466EE730F0004CB0
:1005EC0018BF31F0004CCAD130F000427FF45CAF40
:1005FC0031F000437FF43CAF5FE700BF4FEA4002AD
:10060C00B2F1FE4F0FD34FF09E03B3EB12620DD934
:10061C004FEA002343F0004310F0004F23FA02F09E
:10062C0018BF404270474FF00000704712F1610F45
:10063C0001D1420205D110F0004008BF6FF000401C
:10064C0070474FF00000704742000ED2B2F1FE4FDF
:10065C000BD34FF09E03B3EB126209D44FEA002385
:10066C0043F0004323FA02F070474FF0000070474C
:10067C0012F1610F01D1420202D14FF0FF307047ED
:10068C004FF00000704700BF53B94AB9002908BFAA
:10069C0000281CBF4FF0FF314FF0FF3000F072B953
:1006AC00ADF1080C6DE904CE00F006F8DDF804E0BD
:1006BC00DDE9022304B070472DE9F047089E0D4692
:1006CC0004468E46002B4CD18A42944667D9B2FA26
:1006DC0082F353B102FA03FCC3F1200201FA03FEC8
:1006EC0020FA02F242EA0E0E9C404FEA1C47BEFB77
:1006FC00F7F11FFA8CF507FB11EE01FB05F0220C4C
:10070C0042EA0E4290420AD91CEB020201F1FF3E72
:10071C0080F01981904240F2168102396244121A1B
:10072C00B2FBF7F007FB102200FB05F5A4B244EA7C
:10073C000244A5420AD91CEB040400F1FF3280F0FC
:10074C000481A54240F201816444023840EA014030
:10075C000021641B1EB1DC400023C6E90043BDE848
:10076C00F0878B4208D9002E00F0EA800021C6E900
:10077C0000050846BDE8F087B3FA83F1002948D19B
:10078C00AB4202D3824200F2F880841A65EB03027A
:10079C0001209646002EE2D0C6E9004EDFE702B9F2
:1007AC00FFDEB2FA82F3002B40F08E80881A012112
:1007BC00170C1FFA82FEB0FBF7F507FB1500220C95
:1007CC0042EA00420EFB05F0904208D91CEB0202F3
:1007DC0005F1FF3802D2904200F2CC804546121A45
:1007EC00B2FBF7F007FB10220EFB00FEA4B244EAAA
:1007FC000244A64508D91CEB040400F1FF3202D2D6
:10080C00A64500F2B4801046A4EB0E0440EA054065
:10081C00A0E7C1F120078B4022FA07FC4CEA030C3D
:10082C0025FA07FA4FEA1C49BAFBF9F88D4020FA71
:10083C0007F309FB18AA1FFA8CFE2B4300FA01F5EB
:10084C0008FB0EF01C0C44EA0A44A04202FA01F226
:10085C000BD91CEB040408F1FF3A80F08680A0420F
:10086C0040F28380A8F102086444241A98B2B4FBC5
:10087C00F9F309FB134403FB0EFE40EA0444A645BE
:10088C0008D91CEB040403F1FF306AD2A64568D9E1
:10089C00023B644443EA0840A0FB0293A4EB0E0421
:1008AC009C42C8469E4654D351D0002E67D0B5EB1F
:1008BC00080364EB0E04CB4004FA07F71F43CC404B
:1008CC00C6E9007400214AE702FA03FCC3F12000D8
:1008DC00C1409D4024FA00F04FEA1C472843B1FB6D
:1008EC00F7F507FB15111FFA8CFE020C42EA0142C8
:1008FC0005FB0EF1914204FA03F408D91CEB020239
:10090C0005F1FF382FD291422DD9023D6244521A83
:10091C00B2FBF7F107FB112280B240EA024001FB67
:10092C000EF2824208D91CEB000001F1FF3816D2FE
:10093C00824214D902396044801A41EA05413AE7EF
:10094C00314630460BE77146E9E61046FEE64D456A
:10095C00ABD2B9EB020863EB0C0E0138A5E74146AC
:10096C00EAE7034696E74546D1E7D0467DE764447F
:10097C00023849E7023D624431E708460AE731464E
:10098C00EDE600BF704700BFF7B51C4605461046A4
:10099C000026104F61F07F03224601460DF1010045
:1009AC0000968DF804608DF8003003F08BFD324614
:1009BC003846012101F0EEFC4FF47A736946621C53
:1009CC00284602F0BEFF01223846114601F0E2FC37
:1009DC0003B0F0BD000C0140002230B50446134DAD
:1009EC0085B028468DF8071001218DF80F2001F0F5
:1009FC00D1FC012001F010FB0DF107016423012251
:100A0C00204602F09EFF64230DF10F0101222046C7
:100A1C0003F040F9012001F0FFFA012228461146AB
:100A2C0001F0B8FC9DF80F0005B030BD000C014082
:100A3C00042B01D8FFF7A8BF7047000013B501685D
:100A4C00044600230A4AC804490BFFF71DFE030C99
:100A5C008DF80430030A8DF805308DF80600032359
:100A6C000621D4F8640101AAFFF78EFF02B010BD75
:100A7C000048E80100F10C0201230921D0F86401BF
:100A8C00FFF782BF00F1120201230B21D0F86401A1
:100A9C00FFF77ABF10B5044600F1150201231F21A0
:100AAC00D0F86401FFF770FFD4F8640104F1170269
:100ABC0001232021FFF768FFD4F8640104F1180228
:100ACC000123BDE810402121FFF75EBF13B504469A
:100ADC00C37B827B5B0003EB0213027F1D2113445B
:100AEC008DF807300DF107020123D0F86401FFF7F0
:100AFC004BFF237C627B9B0003EB0213A27DD4F89B
:100B0C00640113448DF807300DF1070201231E21F7
:100B1C00FFF73AFF01232621D4F8640104F11402F3
:100B2C00FFF732FF02B010BD13B504463121D0F8E7
:100B3C006401FFF751FF20F0070040F005008DF82D
:100B4C0007000DF10702D4F8640101233121FFF7EE
:100B5C001BFF0C2337218DF80730D4F864010123D7
:100B6C000DF10702FFF710FF02B010BD37B561F0B1
:100B7C0077038DF80730012304460D46D0F8640145
:100B8C0019460DF10702FFF7FFFE84F82C5003B055
:100B9C0030BDFF2307B512218DF80730D0F8640162
:100BAC0001230DF10702FFF7EFFE03B05DF804FB24
:100BBC0010B504460021FFF7D9FF0F2001F02CFAE5
:100BCC002046FFF73BFF0123392104F11102D4F831
:100BDC006401FFF7D9FE2046FFF74CFF2046FFF7D4
:100BEC0051FF01230C21D4F8640104F11302FFF727
:100BFC00CBFE637B062B29D10123237703232046CD
:100C0C00A375FFF791FF2046FFF760FF2046FFF723
:100C1C0041FFD4F8640104F1190201232421FFF7E8
:100C2C00B3FE04F11A0201234021D4F86401FFF74A
:100C3C00ABFE2046FFF7ADFFD4F8640104F11B02B4
:100C4C000123BDE810401121FFF79EBE002323773E
:100C5C00A375D8E770B50D46044601F0D7F91DB160
:100C6C00022D27D1636800E0A36823604FF2417323
:100C7C006383012384F82D5084F82E300121204603
:100C8C00FFF774FF2046FFF7D9FE04F11A02012387
:100C9C004021D4F86401FFF777FE2046FFF779FF77
:100CAC00D4F8640104F11B020123BDE8704011214A
:100CBC00FFF76ABE05F0FD03012BDFD1D4E9012358
:100CCC00012D08BF1346236049F6017384F82D509B
:100CDC0063830223D0E70000012210B50B4C1146B0
:100CEC00204601F057FB00220121204601F052FB67
:100CFC00012001F091F901222046114601F04AFB36
:100D0C00BDE81040642001F087B900BF000C014021
:100D1C00F8B5044601F07AF944F620670546134EFF
:100D2C004FF48041304601F02FFB78B11221D4F8FA
:100D3C006401FFF751FE2046FFF72BFF032384F8D5
:100D4C002E3001F063F9401B2062F8BD01F05EF912
:100D5C00401BB84205D9FFF7BFFF052384F82E309E
:100D6C00F3E7012001F058F9DAE700BF000C01406D
:100D7C0037B5002504461321D0F864018DF80750CF
:100D8C00FFF72AFE84F85B01E8B12A4601210F48DF
:100D9C0001F000FB642301220DF10701D4F864017A
:100DAC0002F0CFFD64234FF4807204F12F01D4F8CC
:100DBC00640102F06FFF01220448114601F0EAFAC7
:100DCC00042384F82E3003B030BD00BF000C01406A
:100DDC0013B504460021FFF7C9FE94F85B31D4F833
:100DEC0064018DF806300DF1060201232221FFF774
:100DFC00CBFD0023D4F864018DF807300DF1070208
:100E0C0001230D21FFF7C0FD2221D4F86401FFF767
:100E1C00E3FD84F85B0102B010BD37B5802290F879
:100E2C00603104468DF806308DF80720A3B10123FC
:100E3C002221D0F864010DF10602FFF7A5FD012374
:100E4C000D21D4F864010DF10702FFF79DFD00257B
:100E5C0094F86031AB4203DC94F8600103B030BD10
:100E6C00D4F85C2101232A440021D4F86401FFF753
:100E7C008BFD0135ECE710B50446FFF7CEFF20469D
:100E8C000321FFF773FE2046BDE81040FFF740BF7B
:100E9C00002210B500F10D0104460123104600F0AC
:100EAC00A1F8012304F10E011A46002000F09AF873
:100EBC000123022204F10F01002000F093F8042317
:100ECC000022E118012000F08DF8042301201A46BD
:100EDC0004F1080100F086F8637BA268063B062B40
:100EEC0084BF0A236373A37B092B84BF0623A373DC
:100EFC00E37B013B032B84BF0223E373084B1344B6
:100F0C00084A934288BF084B626888BFA360074BAE
:100F1C001344074A934284BF064B636010BD00BF65
:100F2C00008F39F6809698000083400A00B32DF7A5
:100F3C0040548900C01C3D09F8B505464FF4B47007
:100F4C000E4603F0BFF901220446174F11463846EE
:100F5C0001F020FA01223846022101F01BFA01218E
:100F6C002846C4F86451FFF737FDFF2384F82D3071
:100F7C00FC2323730D4B40F20C72236140F60C03DF
:100F8C00A382002384F82C002046E375228384F886
:100F9C005B31FFF77DFF31462046FFF75BFE2046B5
:100FAC00FFF706FE2046F8BD000C014001120B2392
:100FBC0010B590F82D3004468B4211D190F82C309E
:100FCC00052B0DD0FFF746FE2046FFF7F1FD20461E
:100FDC00FFF7FEFE2046BDE810400521FFF7C6BD19
:100FEC0010BD00001FB542EA00224FF47A70009148
:100FFC00CDE90130A0211023054892B201F088FF01
:10100C00044610B9052001F007F8204604B010BDC5
:10101C00800000202DE9F043002489B00F4604A97C
:10102C0098461546CDE90444CDE906448146FFF7C0
:10103C00D9FF3B46044604AE08EB0702934206D1A7
:10104C00062000F0E9FF204609B0BDE8F08313F854
:10105C00010B16F8011B8842F0D0322345EA092215
:10106C00CDE90183A02110230348009792B201F02F
:10107C00BFFE0446E4E700BF8000002038B5002521
:10108C00C0E90155C560044600F0C0FFC4E9055530
:10109C002060256138BD00000D4BDA6842F020025B
:1010AC00DA60DA6822F02002DA60DA6842F01002C4
:1010BC00DA60DA6822F01002DA60DA6842F00802CC
:1010CC00DA60DA6822F00802DA60FFF7D7BF00BFF7
:1010DC00000C01401FB50123ADF80C3032239E21CA
:1010EC00009303AA0223034801F0FEFB05B05DF850
:1010FC0004FB00BF8000002030B53225002485B0F1
:10110C0001239E210F48009503AA8DF80C4001F095
:10111C00EBFBA8B9022303AA9F210A48009501F012
:10112C00BBFCBDF80C0040BA80B2FFF7C3F84FF01F
:10113C006E51FFF713F9FFF787FA80B205B030BD97
:10114C002046FBE78000002010B594B0202200213F
:10115C000CA803F073F9142200210DEB020003F02C
:10116C006DF90021102201A803F068F94FF48033C7
:10117C0009220224CDE90A2301220AA8CDE9114350
:10118C000E92109202F002F8014608B172B6FEE718
:10119C000F23CDE905344FF480630790CDE9083077
:1011AC0005A802F0B5F908B172B6FEE7039001A8E4
:1011BC00019402F069FA08B172B6FEE714B010BDE2
:1011CC0010B50B4C012221460A4803F06AF80A4B71
:1011DC001B6893F83121511C83F8311121789954F3
:1011EC0022787F2A04BF012283F8382110BD00BF6A
:1011FC00280200202C0100206C0300202DE9F04176
:10120C0098460B7A0546093B042B0F46164600F20E
:10121C000A81014698F81520384600F0E8FC3A7827
:10122C000446252A26D81F2A12D8102A68D0112A3B
:10123C0008BF00242146284600F0C9FC7F23044443
:10124C00E4B22B550D23601CC0B27B74BDE8F08159
:10125C00203A052AEED801A353F822F0CB1200084D
:10126C00B512000841120008FB120008D712000842
:10127C00EB120008902A56D002F15003DBB2052B7A
:10128C00D8D8B03A052AD5D801A353F822F000BF1C
:10129C0081130008BB13000841120008DF1300087B
:1012AC00FD1300081914000804232B54B1680130F5
:1012BC00C0B22844063400F0B5FCE4B2BAE704230B
:1012CC002B5401307168C0B2F3E701222A54727BAF
:1012DC00431C0234DBB2E4B2063AEA54AAE7012218
:1012EC00431C2A540234F27BDBB2E4B2F5E7012250
:1012FC002A54B27B431C0234DBB2E4B20132ECE779
:10130C007E232B7098F8153008246B703B7CEA70A8
:10131C00AB7000232B7102236B7198F81530AB71F5
:10132C003B7CEB7186E77B6829469A79384688F8CE
:10133C001520DB79002688F814303B7400F057FC3C
:10134C002E543B7C841C0130DFF8E080C0B22B545F
:10135C00D8F800100123032230462D31FFF75AFE36
:10136C00D8F800100123042230462C31E4B2FFF7E8
:10137C0051FE5FE74FF0040805F804807868621CA2
:10138C00D2B2104400F044FC3146434600220534EE
:10139C0041F8040FE4B20120FFF73CFE304696F80A
:1013AC002D10FFF757FC3046FFF702FC42E74FF0D9
:1013BC00040805F804807868621CD2B2104400F06E
:1013CC0027FC314605344346424641F8080FE4B247
:1013DC00E1E701232B557968621CD2B28A5C314655
:1013EC00013A01F80E2F1A460234E4B20020D3E77A
:1013FC0001232B557968621CD2B28A5C31460632C5
:10140C00023401F80D2FE4B20022EFE701232B5533
:10141C007968621CD2B28A5C3146023401F80F2F13
:10142C00E4B20222E2E7002010E700BF70030020C4
:10143C0010B54FF496720021044602F0FFFF002312
:10144C0084F8313110BD000038B50C46C37B837372
:10145C004368C1F85C31037A204681F8603102217F
:10146C00FFF7F8FB2046FFF706FD94F82E30032B10
:10147C0004D1012208210A4800F08CFF00F0C6FDBF
:10148C00032105462046FFF7E5FB0022082104480E
:10149C0000F080FF00F0BAFD401BA06238BD00BF19
:1014AC00000C0140F8B51F460B780546132B0C4673
:1014BC00164609D101F11205213415F8010F00F07F
:1014CC0025FDA542F9D1F8BD192002F0FBFE2146FD
:1014DC003B463246C5F82C01FFF790FE002485F8F8
:1014EC00300195F83021E3B29A42D5F82C0106D898
:1014FC00002385F83031BDE8F84002F0EBBEC05C4B
:10150C0000F004FD0134ECE72DE9F0411E4690F8A3
:10151C00383104460D46174683B14FF0000890F859
:10152C00311180F8388100F041FB48B14FF49672CC
:10153C004146204602F082FF84F83181BDE8F081FB
:10154C0094F831212146284600F078FBEA7B2B7C6D
:10155C009A420DD13B46324629462046FFF7A2FF60
:10156C002046FFF765FF2846BDE8F04100F0CDBAF4
:10157C002B78002BF4D031462846FFF765FFEFE7B8
:10158C004FF0FF3337B5019303780546B62B37D0B0
:10159C001DD8342B16D8302B12D8142B0DD8013B58
:1015AC000E2B0DD8042401AD15F8010B013C00F0F5
:1015BC00ADFC14F0FF04F7D116E0203B052BF1D85D
:1015CC0000240DE0902BFBD05033DBB2F6E749330F
:1015DC00DBB2042BF3E76A680134D05C00F096FCB4
:1015EC002A7AE3B29A42F6D803B030BD6A68013465
:1015FC00D05C00F08BFC2A7AE3B29A42F6D8F3E77F
:10160C000024F8E7F7B504460D4622484FF4804114
:10161C0000F0BAFED0B12046FFF7AAFB04F12F0769
:10162C002046FFF7B6FA384694F85B1100F0BEFA84
:10163C00064658B994F85B213946284600F0FEFA64
:10164C00EA7BAB7B9A4203D005236B7403B0F0BDED
:10165C00012210210F4800F09DFE2846FFF790FF55
:10166C00284600F052FA3146204684F85B61FFF7B9
:10167C007DFAD4F864010DF1070201230D218DF8D8
:10168C000760FFF7D5F932461021024800F082FEC0
:10169C00DCE700BF000C014010B5044600F0B6FCBE
:1016AC00001BB0F57A7F09D900F0B0FC012204468A
:1016BC002021064800F06EFE204610BD00F0A6FC6E
:1016CC00001B3228F8D90022F2E700BF000C0140C1
:1016DC000B4B9A6942F400729A619A6942F00402C7
:1016EC009A61A3F56C439A6842F4F0129A609A6876
:1016FC0042F400029A609A6842F001029A607047C4
:10170C0000100240044B9A6842F004029A609A68F6
:10171C005207FCD4704700BF00240140074A93696C
:10172C0043F004039361064B1A6822F00F021A600F
:10173C005A6822F470425A60704700BF0010024091
:10174C0000080140084B5A6B22F01F025A635A6B77
:10175C00104358639A6842F001029A609A6842F406
:10176C0080029A60704700BF0024014008B5FFF763
:10177C00E9FF034B1A689207FCD5D86C80B208BD00
:10178C000024014070B5044616460D4600F03EFCA0
:10179C00636BC01AB04228D904F113060E22002143
:1017AC00304602F04BFE7E23E374237C0B216375E1
:1017BC001323A375052323762B88304663762B8859
:1017CC00C3F30723A3766B88E3766B88C3F30723F5
:1017DC002377AB88637700F0FAF97F230B30C0B224
:1017EC002044C37400F012FC606370BD2DE9F04F0F
:1017FC00914B924F89B01F6000F0EAFBFFF7A4FCFD
:10180C00102200210DEB020002F018FE8C4B47F267
:10181C003B319A698B4842F020029A619A69012601
:10182C0002F020020192019A9A69002442F004020B
:10183C009A619A6902F004020292029A9A6942F041
:10184C0008029A619B69002203F008030393039B2F
:10185C0000F0A0FD47F23B33CDE904360223794872
:10186C0004A9CDE9064300F0B5FC7748774BDFF8C7
:10187C00E0C1C0E90244C0E900C34FF48043C0E9B1
:10188C000644C0E90434046200F086FF08B172B665
:10189C00FEE74FF482736F4C6F494FF40075C4E947
:1018AC0000131823C4E906530A23C4E90200C4E94F
:1018BC000400C4E90800A0622046E36201F0E9FFDD
:1018CC0008B172B6FEE74FF00C084FF49643634D27
:1018DC00634AC5E90200C5E905802861E86128462C
:1018EC00C5E9002302F0E4FA034608B172B6FEE73C
:1018FC004FF4E1395B485C4AC0E90233C0E9043873
:10190C00C0E90633C0E9002902F0D2FA034608B157
:10191C0072B6FEE75548564AC0E90438C0E90029BA
:10192C00C0E90233C0E9063302F0C2FA804608B1BE
:10193C0072B6FEE732462021424800F02BFD4FF4F0
:10194C007A7000F069FB324608213E4800F022FD17
:10195C004FF47A7000F060FB32461021394800F0E9
:10196C0019FD4FF47A7000F057FB404600F090F8E8
:10197C00DFF800A1DFF800B1CAF80000404600F023
:10198C00AAF8CBF800003D48FFF786FB404600F074
:10199C00B1F8DFF8EC900321C9F800002046FFF7FE
:1019AC00CBFA384C2060FFF795FB42464146252088
:1019BC0000F056FB252000F083FB324632492846C6
:1019CC0002F06FFCFFF7AAFEFFF782FEFFF79AFE0C
:1019DC0000F01CFBD9F80060054600F017FB7063A3
:1019EC002A4E0020FFF7C2FE30800120FFF7BEFE1A
:1019FC007080FFF781FB41F288322449B080D9F81E
:101A0C000000FFF7BFFE2368DBF800203846D9F84A
:101A1C000010FFF779FD03212068FFF7C9FADAF807
:101A2C000020D9F800102068FFF7ECFD2846FFF7DE
:101A3C0033FE0546D5E700BF6C03002030020020C2
:101A4C0000100240000C014080000020A086010024
:101A5C0000540040D4000020003001402C01002034
:101A6C00003801407401002000440040BC010020FB
:101A7C0000480040700300202C02002004020020CB
:101A8C0024020020200200202802002078000020E0
:101A9C0038B50546382002F015FC00238361C3617C
:101AAC00002380F82D50C0E90033C0E902330384D1
:101ABC0080F8223003618382436280F8283080F8FA
:101ACC00343080F82E3080F82C30044600F09EFA2A
:101ADC002063204638BD10B504461C2002F0F2FBF2
:101AEC0038B10023002203808260038203754475A1
:101AFC00836110BD10B50446382002F0E3FB0822C8
:101B0C00427400220474027010BD0023082203707A
:101B1C00838143814274C37370470323994201DC70
:101B2C0004207047C25C7F2A01D00133F6E70920FC
:101B3C00704706290AD903787E2B09D1084410F87E
:101B4C00013C7F2B0CBF02200120704708207047FE
:101B5C0003207047024630B5014441F221050020B4
:101B6C00914200D130BD082412F8013B80EA0320D9
:101B7C0010F4004F4FEA400318BF6B4098B2631E3D
:101B8C0013F0FF04F4D1EBE710B5431813F8022C53
:101B9C0013F8034C0439C9B2013044EA0224FFF7AC
:101BAC00D9FF844214BF0620002010BD10B5044696
:101BBC00FFF7BFFF022809D12046FFF7AEFF092827
:101BCC0004D12046BDE81040FFF7DEBF10BD38B58C
:101BDC000C4601390546C9B20130FFF7BBFF285549
:101BEC000134C0F30723E4B202202B5538BD034661
:101BFC00007860B1187C00B94AB97E204A70087030
:101C0C001A7C05208A701B78CB7000230B717047EF
:101C1C0008B503490068FEF7A1FBFEF7EFFC08BD11
:101C2C000024744910B504460846FEF73FFB0249F0
:101C3C00FEF748FC206010BD0024744931B12AB174
:101C4C00CB7803708B780272C373416070470000CD
:101C5C000E4B82B09A6942F001029A619A6902F0C5
:101C6C0001020092009ADA6942F08052DA61DB6973
:101C7C00074A03F080530193019B536823F0E06300
:101C8C0043F00073536002B0704700BF0010024075
:101C9C000000014010B5044686B01022002102A8B5
:101CAC0002F0CCFB2268114B9A421CD1104CC02282
:101CBC00A369104843F00803A361A36902A903F0C8
:101CCC0008030093009B1223CDE902230323059301
:101CDC0000F080FAE36943F40013E361E36903F471
:101CEC0000130193019B06B010BD00BF00540040CF
:101CFC0000100240000C014010B5044686B01022C2
:101D0C00002102A802F09AFB2268164B9A4226D1B7
:101D1C0003F560439A69144842F480529A619A69B7
:101D2C0002A902F480520092009A9A6942F00402CD
:101D3C009A619B69A02203F004030193019B022387
:101D4C00CDE902230323059300F044FA402100233C
:101D5C000548CDE9021302A9049300F03BFA06B042
:101D6C0010BD00BF003001400008014010B5044612
:101D7C008AB01022002106A802F060FB2368444AB6
:101D8C00934231D1434B4FF4007C9A69424842F460
:101D9C0080429A619A6906A902F480420092009AE4
:101DAC009A69002442F004029A619B6903F00403CF
:101DBC000193019B0223CDE906C30323099300F091
:101DCC0009FA4FF48063344806A9CDE90634089427
:101DDC0000F000FA25202246214600F041F925208A
:101DEC0000F06EF90AB010BD2C4A934226D1294B53
:101DFC000420DA6906A942F40032DA61DA690824AF
:101E0C0002F400320292029A9A6942F004029A6138
:101E1C009B6903F004030393039B0223CDE90603A0
:101E2C0003231D48099300F0D5F90023CDE906439F
:101E3C001948089306A900F0CDF9D3E7184A934244
:101E4C00D0D1144B1748DA6906A942F48022DA6122
:101E5C00DA6902F480220492049A9A6942F0080228
:101E6C009A619B694FF4806203F008030593059B0C
:101E7C000223CDE906230323099300F0ABF94FF4B9
:101E8C00006100230748CDE90613089306A9D2E7A1
:101E9C00003801400010024000080140004400409E
:101EAC0000480040000C0140FEE7FEE7FEE7FEE7BD
:101EBC00FEE770477047704700F09CB8014802F08D
:101ECC008DB800BF2C0100200B4A0346116810B5D9
:101EDC0009B90A491160106809490A4C0344091BE5
:101EEC008B4206D902F0C2FA0C2303604FF0FF308C
:101EFC0010BD1360FCE700BF74030020C804002071
:101F0C00005000200004000070470000094AD3680C
:101F1C0043F48073D360084B1A681106FCD55860E3
:101F2C001A685206FCD5034AD36823F48073D36035
:101F3C00704700BF000C0140003801400C480D49AF
:101F4C000D4A002302E0D458C4500433C4188C4208
:101F5C00F9D30A4A0A4C002301E013600432A2426E
:101F6C00FBD3FFF7D1FF02F087FAFFF73FFC704776
:101F7C00000000205C000020D04500085C00002020
:101F8C00C4040020FEE7000038B50E4B05461A7855
:101F9C004FF47A73B3FBF2F30B4A1068B0FBF3F017
:101FAC0000F09CF8044658B90F2D09D80246294672
:101FBC004FF0FF3000F054F82046044B1D6038BD44
:101FCC000120FCE704000020000000200800002095
:101FDC00074A08B51368032043F01003136000F0A0
:101FEC002DF80F20FFF7D0FFFFF732FE002008BDC1
:101FFC0000200240034A044B11681B780B44136009
:10200C00704700BF7803002004000020014B1868C3
:10201C00704700BF7803002038B50446FFF7F6FF81
:10202C000546631C1EBF044B1B78E418FFF7EEFF3C
:10203C00431BA342FAD338BD040000200749030216
:10204C00CA6803F4E06322F4E0621204120C134336
:10205C0043F0BF6343F40033CB60704700ED00E006
:10206C00154B30B5DC68C4F30224C4F10703251DFD
:10207C00042B28BF0423062D4FF0FF3594BF0024FA
:10208C00033C05FA03F321EA0303A54022EA050207
:10209C00A340002843EA0203ACBF00F16040074AAA
:1020AC004FEA0313DBB2ABBF00F5614000F00F0049
:1020BC0080F80033135430BD00ED00E014ED00E067
:1020CC00002807DB01234109034A00F01F0083406D
:1020DC0042F82130704700BF00E100E00138B0F158
:1020EC00807F0BD24FF0E023F021054A586182F833
:1020FC0023100020072298611A6170470120704755
:10210C0000ED00E090F821200346022A06D00422BC
:10211C0082630120002283F8202070470268C06B84
:10212C00116821F00E011160116821F0010111609C
:10213C0001211A6C01FA02F24260002083F821108E
:10214C00E8E7000010B590F82130022B03D00423EF
:10215C008363012010BD03681A6822F00E021A6016
:10216C001A6822F001021A60184A93421FD01432E6
:10217C0093421ED0143293421DD0143293421DD080
:10218C00143293421DD0143293420CBF4FF480137F
:10219C004FF080730E4A00245360012380F82130E5
:1021AC00436B80F820407BB198472046D2E701234F
:1021BC00F0E71023EEE74FF48073EBE74FF4805316
:1021CC00E8E74FF48033E5E71846C3E70800024020
:1021DC00000002402DE9F74F00221646644F654B74
:1021EC00DFF894C1DFF894E10D6835FA06F402D1FA
:1021FC0003B0BDE8F08F4FF0010808FA06F805EAC5
:10220C00080438EA05057AD14D68032D07D8013D3D
:10221C00022D00F28780DFE805F0959AA000122DC0
:10222C0000F098806DD8112D00F08E80FF2C98BF97
:10223C0082464FF00F0988BF00F1040A4FEA860569
:10224C00DAF8008088BF203D09FA05FB28EA0B0864
:10225C0002FA05F548EA0505CAF80050D1F804A0C1
:10226C001AF0805F4BD0BD6926F0030845F00105DC
:10227C00BD61BD6908F1804805F00105019508F5BF
:10228C00803806F0030B019D4FEA8B0BD8F80850F1
:10229C0009FA0BF925EA0909394DA84261D005F56F
:1022AC008065A8425FD005F58065A8425DD005F534
:1022BC008065A8420CBF0325042505FA0BF545EAF9
:1022CC000905C8F808509D681AF4801F14BF2543EF
:1022DC00A5439D60DD681AF4001F14BF2543A54378
:1022EC00DD605D681AF4003F14BF2543A5435D60B3
:1022FC001D681AF4803F14BF2543A5431D600136A9
:10230C0072E7DFF880904D450CD017D8A9F58019ED
:10231C004D4507D009F570294D4503D0A9F5801915
:10232C004D4583D18A68D2B1012A08BFC0F810800C
:10233C004FF0080218BFC0F8148077E76545F1D05C
:10234C007545EEE7CA6871E7CA6804326EE7CA6879
:10235C0008326BE7CA680C3268E7002266E7042291
:10236C0064E70025A9E70125A7E70225A5E700BF3B
:10237C000010024000040140000031100000321037
:10238C0000080140000022108368194214BF01208C
:10239C00002070470AB1016170470904FBE701682E
:1023AC0000224B6913F4806310D06FF480634B618F
:1023BC002023026380F83D3080F83E20036C80F8C7
:1023CC003C2043F004030364012070471846704717
:1023DC002DE9F84606460F4691461D464FEA114A2E
:1023EC003368BAF1010F0CBF5C699C6927EA0404DD
:1023FC00A4B2B4FA84F46409A14501D0002025E00C
:10240C006A1CEED0FFF702FE089BC01AA84201D846
:10241C00002DE5D13368BAF1010F0CBF5B699B69E4
:10242C0027EA03039BB2B3FA83F35B099945D7D12F
:10243C00002320220120336386F83D2086F83E30AD
:10244C00326C86F83C3042F020023264BDE8F886EB
:10245C002DE9F04104460F461646984625686869F2
:10246C0027EA000080B2B8B16B695A0516D52B6803
:10247C00202243F400732B606FF480636B610023A4
:10248C00236384F83D2084F83E30226C42F0040231
:10249C000120226484F83C30BDE8F081731CDED04E
:1024AC00FFF7B4FDA0EB0800B04201D8002ED5D147
:1024BC0023685A6927EA020292B2002ACED000237E
:1024CC002022236384F83D2084F83E30226C42F0B5
:1024DC002002DDE770B504460D46164623685B699D
:1024EC001B0601D5002070BD2046FFF758FFC8B968
:1024FC006A1CF3D0FFF78AFD801BA84201D8002D7F
:10250C00ECD123685B6913F08003E7D120222363AD
:10251C0084F83D2084F83E30226C84F83C3042F044
:10252C00200222640120DEE72DE9F0431546026803
:10253C009946136885B043F480731360DDE90C7819
:10254C000E463B4600224FF00111CDF800800446A8
:10255C00FFF73EFF236838B11B68DB0502D54FF44B
:10256C000073236403200AE006F0FE061E613A465F
:10257C00434620461749FFF76BFF18B1012005B001
:10258C00BDE8F083236803905A69394603929B692E
:10259C00424603932046039BFFF79CFF40B1236CFC
:1025AC00042B01BF2268136843F400731360E5E742
:1025BC00B9F1010F236802D1EDB21D61DFE72A0AE0
:1025CC001A61394642462046FFF784FF0028E6D1BF
:1025DC002368F1E7020001002DE9FF479A46DDE987
:1025EC000C78036815461A680E4642F480621A602D
:1025FC001A684FF0011142F480721A603B460022B7
:10260C00CDF800800446FFF7E3FE236848B11B6851
:10261C00DB0502D54FF400732364032004B0BDE83E
:10262C00F0875FFA86F906F0FE061E613A464346CD
:10263C0020462949FFF70CFF08B10120EEE723687B
:10264C0003905A69394603929B694246039320468C
:10265C00039BFFF73FFF40B1236C042B01BF2268A3
:10266C00136843F400731360E7E7BAF1010F2368B2
:10267C001AD1EDB24246394620461D61FFF72AFFBA
:10268C0002460028E8D1216820460B6843F4807389
:10269C000B603B464FF00111CDF80080FFF798FE20
:1026AC00226860B11368B3E72A0A1A6139464246B8
:1026BC002046FFF70FFF0028CED12368D9E749F059
:1026CC0001031361204643463A460349FFF7C0FE17
:1026DC00003818BF0120A1E70200010070B50446C4
:1026EC000D46164623685B695B0701D5002070BD5B
:1026FC002046FFF754FEC8B96A1CF3D0FFF786FCDE
:10270C00801BA84201D8002DECD123685B6913F023
:10271C000403E7D12022236384F83D2084F83E3063
:10272C00226C84F83C3042F0200222640120DEE767
:10273C0070B504460D46164621684B6913F04003EC
:10274C0001D0002010E04A69D2060ED56FF01002BD
:10275C004A612022236384F83D2084F83E30226CA9
:10276C000120226484F83C3070BDFFF74FFC801BC5
:10277C00A84201D8002DDFD123685B6913F0400318
:10278C00DAD12022236384F83D2084F83E30226C79
:10279C0042F02002E4E7000070B5044608B90120BD
:1027AC0070BD90F83D3003F0FF021BB980F83C205F
:1027BC00FFF770FA242384F83D3023681A6822F05E
:1027CC0001021A601A6842F400421A601A6822F474
:1027DC0000421A6000F038FF3F4B65689D4294BF81
:1027EC003E4B3F4B98428CBF00230123002BD6D18C
:1027FC00394E3C4BB542B0FBF3F388BF4FF49676A1
:10280C002268516821F03F0141EA030182BF734302
:10281C004FF47A76B3FBF6F35160116A013321F071
:10282C003F010B431362D169431E2B4821F44F41E6
:10283C00854221F0FF0132D86D00B3FBF5F340F671
:10284C00FC700133034242D0C3F30B031943D16133
:10285C001168D4E9073021F0C00103430B43136026
:10286C009168D4E9030321F40341034321F0FF01F0
:10287C000B439360D168D4E9053021F0FF01034389
:10288C000B43D3601368002043F001031360202333
:10289C00206484F83D30206384F83E0080E7A06813
:1028AC0050B905EB4505B3FBF5F30133C3F30B034B
:1028BC007BB143F40043C9E719206843B3FBF0F341
:1028CC000133C3F30B0323B143F44043BEE70423AA
:1028DC00BCE70123BAE700BFA08601007F841E007D
:1028EC00FF083D0040420F002DE9F043044685B03F
:1028FC0098460D4691460C9FFFF788FB94F83D30A7
:10290C000646202B04D00225284605B0BDE8F083EE
:10291C0000901923012220465B49FFF759FD00283E
:10292C00F1D194F83C30012BEDD00123216884F8CF
:10293C003C300B68DA075EBF0B6843F001030B6099
:10294C000B6823F400630B60212384F83D301023C3
:10295C0084F83E3000232364A4F82A80638DC4F8E5
:10296C0024902385494BE362E36A082B04D0012BA6
:10297C0002D013F5803F04D10B6843F480730B60D5
:10298C0002E0236B122BF7D000223B464FF00111D3
:10299C0020460096FFF71CFD226838B11368DB0552
:1029AC0044BF4FF4007323640125ADE72369B3F5ED
:1029BC00804F21D105F0FE05156133463A4620467D
:1029CC003349FFF745FD05460028EDD123680390F8
:1029DC005A6903929B690393039B238DF3B9216876
:1029EC000A6842F400720A60202284F83C3084F8B1
:1029FC003D2084F83E3087E7EB1103F0060343F0EB
:102A0C00F0031361204633463A462249FFF720FD76
:102A1C000028C9D12368EDB21D61CEE73246394694
:102A2C002046FFF757FD40B1236C042BBCD1226824
:102A3C00136843F400731360B6E7636A20681A46A0
:102A4C0012F8011B01616262628D013A92B26285D9
:102A5C00228DD0F814C0511E89B21CF0040F2185B0
:102A6C000AD049B15978023301616362638D023A2D
:102A7C00013B9BB263852285324639462046FFF7DF
:102A8C002DFE0028A9D0CFE7020010000000FFFFA8
:102A9C0002000100080001002DE9F04398460023D4
:102AAC00044689B002930D469146109FFFF7AEFA8B
:102ABC0094F83D300646202B04D00225284609B058
:102ACC00BDE8F08300901923012220468F49FFF7BF
:102ADC007FFC0028F1D194F83C30012BEDD0012380
:102AEC00216884F83C300B68DB075EBF0B6843F051
:102AFC0001030B600B6823F400630B60222384F842
:102B0C003D30102384F83E3000232364A4F82A803F
:102B1C00638DC4F8249023857D4BE362E36A0A68D5
:102B2C00082B42F480620A6004D0012B02D013F50A
:102B3C00803F04D10B6843F480730B6002E0236B7D
:102B4C00112BF7D03B4600224FF001112046009686
:102B5C00FFF73EFC236838B11B68D80502D54FF44B
:102B6C00007323640125A9E72269B2F5804F29D1AE
:102B7C0045F00105EDB21D6133463A4620466549E4
:102B8C00FFF766FC05460028ECD1228D2368002A4D
:102B9C004DD103905A6903929A690392039A1A6869
:102BAC0042F400721A60DFF87081DFF87091238DA7
:102BBC00002B6CD1202284F83C3084F83D2084F822
:102BCC003E307BE74FEAE51808F0060848F0F002C3
:102BDC001A61204633463A465149FFF739FC002822
:102BEC00C0D12368EDB23A461D61204633464949AF
:102BFC00FFF72EFC02460028B4D1236807905969D0
:102C0C0020460791996907910799196841F48071D9
:102C1C0019603B464FF001110096FFF7D9FB226873
:102C2C0008B1136899E748F0F1031361A4E7012A8E
:102C3C0011D11A6822F480621A6072B6236804906B
:102C4C005A6904929A690492049A1A6842F40072BE
:102C5C001A6062B6A7E7022A1A680ED142F4006223
:102C6C001A6072B6236805905A6905929A690592A2
:102C7C00059A1A6822F48062EAE742F480621A60CC
:102C8C0006905A6906929B690693069B8BE7032B69
:102C9C0000F28880012B16D1324639462046FFF7C8
:102CAC0047FD00287FF45EAF23681A69636A1A70C7
:102CBC00636A01336362238D013B2385638D013B82
:102CCC009BB2638573E7022B4FF000023B464146F3
:102CDC002046009626D1FFF77BFB00287FF442AFFD
:102CEC0072B623681A6842F400721A601A69636A31
:102CFC001A70636A01336362238D013B2385638DF4
:102D0C00013B9BB2638562B6CEE700BF02001000A8
:102D1C000000FFFF02000100040001000000002081
:102D2C0008000100FFF754FB00287FF41BAF22685A
:102D3C00136823F48063136072B646F2A8112368FB
:102D4C001A69636A1A70626A531C6362238D013BB1
:102D5C002385638D013B9BB26385D9F80030B3FBAF
:102D6C00F1F323214B430293029B013B0293029B01
:102D7C006BB92022236384F83D2084F83E30226C0A
:102D8C0042F02002226462B684F83C30EAE6236802
:102D9C0059694907E8D5196841F4007119601B6934
:102DAC005370A6E7324639462046FFF7C1FC00288F
:102DBC007FF4D8AE23681A69636A1A70628D616AEF
:102DCC00013A92B24B1C628522686362238D506972
:102DDC00013B9BB2400723857FF5E9AE032B02BF75
:102DEC00136823F48063136013694B7060E700BFB2
:102DFC002DE9F743044699460F4690460C9EFFF783
:102E0C0005F994F83D300546202B03D0022003B081
:102E1C00BDE8F08300901923012220463A49FFF7C0
:102E2C00D7FA0028F2D194F83C30012BEED00123D4
:102E3C00206884F83C3003684246D90758BF0368C1
:102E4C0039465CBF43F001030360036823F400635D
:102E5C000360212384F83D30402384F83E30002366
:102E6C0023640A9B20466362BDF82C30CDE90065D3
:102E7C006385638D2385254BE3624B46FFF754FB3B
:102E8C0000282AD00120C2E7FFF724FB40B1236CB5
:102E9C00042B01BF2268136843F400731360F1E73D
:102EAC00636A27681A4612F8011B39616262628DE7
:102EBC00218D013A92B262857A69481E80B252071E
:102ECC0020850AD548B15A7802333A616362638D22
:102EDC000239013B9BB221856385238D2A463146FD
:102EEC002046002BD0D1FFF7F9FB0028CFD1226868
:102EFC00136843F400731360202384F83C0084F8B7
:102F0C003D3084F83E0082E7020010000000FFFF15
:102F1C002DE9F04399460023044689B003930D46EE
:102F2C009046129FFFF772F894F83D300646202B1E
:102F3C0004D00225284609B0BDE8F083009019237F
:102F4C00012220468D49FFF743FA0028F1D194F86D
:102F5C003C30012BEDD00123206884F83C30036811
:102F6C002946DB0758BF036842465CBF43F00103A8
:102F7C000360036823F400630360222384F83D306C
:102F8C00402384F83E3000232364109B2046636268
:102F9C00BDF84430CDE900766385638D2385784B8D
:102FAC00E3624B46FFF718FB054608B10125C1E764
:102FBC00228D2368C2B904905A6904929A690492CA
:102FCC00049A1A6842F400721A60DFF8B881DFF8CC
:102FDC00B891238D002B37D1202284F83C3084F813
:102FEC003D2084F83E30A5E7012A11D11A6822F45D
:102FFC0080621A6072B6236805905A6905929A69C4
:10300C000592059A1A6842F400721A6062B6DCE7FF
:10301C00022A1A680ED142F400621A6072B6236852
:10302C0006905A6906929A690692069A1A6822F4D0
:10303C008062EAE742F480621A6007905A6907924C
:10304C009B690793079BC0E7032B78D8012B15D1FD
:10305C00324639462046FFF76BFB0028A6D1236881
:10306C001A69636A1A70636A01336362238D013BC8
:10307C002385638D013B9BB26385AAE7022B4FF03E
:10308C0000023B4641462046009618D1FFF7A0F9B6
:10309C0000288BD172B623681A6842F400721A6049
:1030AC001A69636A1A70636A01336362238D013B88
:1030BC002385638D013B9BB2638562B6CFE7FFF737
:1030CC0087F900287FF472AF2268136823F48063B9
:1030DC00136072B646F2A81123681A69636A1A70F3
:1030EC00626A531C6362238D013B2385638D013B14
:1030FC009BB26385D9F80030B3FBF1F323214B432A
:10310C000393039B013B0393039B6BB92022236323
:10311C0084F83D2084F83E30226C42F02002226478
:10312C0062B684F83C3041E7236859694807E8D512
:10313C00196841F4007119601B695370B3E732468A
:10314C0039462046FFF7F4FA00287FF42FAF2368A6
:10315C001A69636A1A70626A531C6362238D013B9D
:10316C002385638D013B9BB26385236859694907AD
:10317C007FF52FAF1B69537075E700BF020010007D
:10318C000000FFFF04000100000000202DE9F341C6
:10319C00054638B30368DB0710D42B689F075ED451
:1031AC002B68190700F195802B685A0700F1C18034
:1031BC00E869002840F02C81002029E0904C6368DD
:1031CC0003F00C03042B07D0636803F00C03082BEB
:1031DC000AD16368DE0307D523689C03DDD56B68D1
:1031EC00002BDAD1012013E06B68B3F5803F12D1CC
:1031FC00236843F480332360FEF708FF06462368F8
:10320C009803CAD4FEF702FF801B6428F7D9032069
:10321C0002B0BDE8F0819BB9236823F480332360AE
:10322C00236823F480232360FEF7F0FE0646236810
:10323C009903B2D5FEF7EAFE801B6428F7D9E6E7BE
:10324C00B3F5A02F236803D143F480232360CFE789
:10325C0023F480332360236823F48023CBE7684C6A
:10326C00636813F00C0F07D0636803F00C03082B92
:10327C0010D16368DA030DD423689B0702D52B6940
:10328C00012BAFD123686A6923F0F80343EAC20328
:10329C00236085E72A695B4B6AB101221A60FEF74D
:1032AC00B5FE064623689F07ECD4FEF7AFFE801BE5
:1032BC000228F7D9ABE71A60FEF7A8FE064623688A
:1032CC0098077FF56DAFFEF7A1FE801B0228F6D99B
:1032DC009DE7AA694A4E4B4BE2B10122C3F8802408
:1032EC00FEF794FE0446736A9B070DD54FF4FA5211
:1032FC00454B1B68B3FBF2F3019300BF019B5A1EB5
:10330C000192002BF9D14FE7FEF780FE001B02283B
:10331C00E9D97CE7C3F88024FEF778FE0446736A8B
:10332C009F077FF541AFFEF771FE001B0228F6D90F
:10333C006DE7334CE369D80024D40127E36943F0EB
:10334C008053E361E36903F080530093009B2F4E9D
:10335C003368D90518D5EB68012B26D1236A43F0C5
:10336C0001032362FEF752FE41F288380646236AB7
:10337C009B073FD5002F3FF41BAFE36923F080532D
:10338C00E36115E70027E2E7336843F480733360A9
:10339C00FEF73CFE80463368DA05DCD4FEF736FED9
:1033AC00A0EB08006428F6D931E7ABB9236A41F2E7
:1033BC00883823F001032362236A23F00403236279
:1033CC00FEF724FE0646236A9807D3D5FEF71EFEA9
:1033DC00801B4045F7D91AE7052B236A03D143F02C
:1033EC0004032362BAE723F001032362236A23F068
:1033FC000403B6E7FEF70AFE801B4045B7D906E783
:10340C00001002400000424200000020007000400A
:10341C002A4C636803F00C03082B3ED00022284B87
:10342C0002281A662CD1FEF7F1FD06462368990195
:10343C0020D42B6AB3F5803F05D16268A96822F4C9
:10344C0000320A436260696A62680B4322F47412A8
:10345C001343012263601A4B1A66FEF7D7FD05462B
:10346C0023689A013FF5A8AEFEF7D0FD401B022859
:10347C00F6D9CCE6FEF7CAFD801B0228D6D9C6E6E3
:10348C00FEF7C4FD054623689B017FF595AEFEF75C
:10349C00BDFD401B0228F6D9B9E601283FF4B8AEB1
:1034AC0063682A6A03F4803191427FF49BAE6A6AA6
:1034BC0003F4701393423FF47FAE93E60010024086
:1034CC00000042420D4A536803F00C01082912D146
:1034DC000B48C3F38341DB03405C09D55368094AAD
:1034EC00C3F340435043084AD35CB0FBF3F070473E
:1034FC00064B584370470348704700BF001002400A
:10350C00AC45000800127A00BC45000800093D00DB
:10351C002DE9F0410D46044610B90120BDE8F081BB
:10352C00444A136803F007038B4228D321688E07A3
:10353C0030D4CA0743D43F4A136803F00703AB42A5
:10354C0065D822683C4D12F0040F6CD1130706D5D8
:10355C006B68226923F4605343EAC2036B60FFF784
:10356C00B1FF6B68354AC3F30313D35CD840344BBB
:10357C001860344B1868FEF707FD0020CEE713687F
:10358C0023F007030B431360136803F007038B420C
:10359C00C3D1CBE7284B11F0040F1EBF5A6842F47D
:1035AC00E0625A60080742BF5A6842F460525A609F
:1035BC005A68A06822F0F00202435A60B9E76268C8
:1035CC001D4E012A33681AD113F4003FA5D073683D
:1035DC0041F2883823F0030313437360FEF716FDA2
:1035EC0007467368626803F00C03B3EB820FA2D03A
:1035FC00FEF70CFDC01B4045F3D903208EE7022AD1
:10360C0002D113F0007FE1E713F0020FDEE713683D
:10361C0023F007032B431360136803F00703AB423B
:10362C007FF47BAF8DE76B68E16823F4E0630B43B9
:10363C006B608BE7002002400010024094450008AC
:10364C000000002008000020044B054A5B68C3F30F
:10365C000223D35C034A1068D84070470010024024
:10366C00A445000800000020044B054A5B68C3F326
:10367C00C223D35C034A1068D84070470010024044
:10368C00A44500080000002003682DE9F341D90788
:10369C00054621D5364CE369DA0033D40126E369BB
:1036AC0043F08053E361E36903F080530193019B82
:1036BC00304F3B68DB0527D5236A6A6813F44073E7
:1036CC0036D1236A6A6823F44073134323621EB114
:1036DC00E36923F08053E3612868830706D5244906
:1036EC00AB684A6822F440421A434A6010F010005A
:1036FC001BD01F4AE9685368002023F480030B4356
:10370C00536012E00026D3E73B6843F480733B60C0
:10371C00FEF77CFC80463B68D805CDD4FEF776FCE2
:10372C00A0EB08006428F6D9032002B0BDE8F081B4
:10373C0002F440729A42C4D001200F4A236AC2F8A4
:10374C004004002023F44071C2F840042162D907E0
:10375C00B7D5FEF75BFC41F288380746236A9A0717
:10376C00AFD4FEF753FCC01B4045F7D9DCE700BFD4
:10377C000010024000700040000042422DE9F3416D
:10378C001C4616460F460546FEF740FC3444241AE8
:10379C00FEF73CFC8046234B1B68C3F3CB336343DF
:1037AC002A680193936837EA030301D000202EE0C6
:1037BC00731CF7D0FEF72AFCA0EB0800A04229D31B
:1037CC002B685A6822F0E0025A606A68B2F5827F70
:1037DC000AD1AA68B2F5004F02D0B2F5806F03D1BE
:1037EC001A6822F040021A60AA6AB2F5005F07D18B
:1037FC001A6822F400521A601A6842F400521A60D5
:10380C00012385F851300023032085F8503002B095
:10381C00BDE8F081019B002B019B08BF0024013BFC
:10382C00BEE700BF0000002038B5134642680446CE
:10383C00B2F5827F16D18268B2F5004F02D0B2F594
:10384C00806F0FD12568B2F5806F286820F040009A
:10385C00286007D10A4601212046FFF78FFF20B9C7
:10386C00002038BD0A468021F6E7636D032043F043
:10387C0020036365F5E710B513460A46802104461C
:10388C00FFF77CFF20B10320636D43F020036365D9
:10389C0010BD10B50446002851D0436A002B4AD104
:1038AC004268B2F5827F00D0C3610023A36294F812
:1038BC00513003F0FF0223B9204684F85020FEF764
:1038CC001BFA0223226884F851301368A06823F095
:1038DC0040031360636800F4044003F482730343F1
:1038EC00E068A16900F400600343206900F0020065
:1038FC000343606900F00100034301F400700343CB
:10390C00E069090C00F038000343206A01F004015F
:10391C0000F080000343A06A00F4005003431360DE
:10392C005160D369002023F40063D36101236065E7
:10393C0084F8513010BD0023C0E90433B5E70120F1
:10394C00F8E72DE9F3471F4690F850300446012B59
:10395C000D46904600F0A680012380F85030FEF70B
:10396C0055FB94F851308246012B5FFA83F940F0F5
:10397C009680002D67D0B8F1000F64D0032384F833
:10398C00513000236365C4E91033A4F83680A36377
:10399C00A387E387A3682668B3F5004F2563A4F8D3
:1039AC00348007D1336823F040033360336843F429
:1039BC0080433360336862685B065EBF336843F0F4
:1039CC0040033360E368B3F5006F43D112B1B8F133
:1039DC00010F07D135F8023BF3602563E38E013B01
:1039EC009BB2E386E38E9BB2B3B95246394620466E
:1039FC00FFF741FF00284FD1A36833B90193236827
:103A0C00DA6801929B680193019B636DDBB901221B
:103A1C00994684F8512016E022689368980705D5DA
:103A2C00236B33F8021BD1602363D7E7FEF7EEFA62
:103A3C00A0EB0A00B842D5D3791CD3D001234FF0A8
:103A4C00030984F85130002384F85030484602B002
:103A5C00BDE8F08712B1B8F1010F08D12B783373A0
:103A6C00236B01332363E38E013B9BB2E386E38E2E
:103A7C009BB2002BB9D023689A68920703D5226BAE
:103A8C0012781A73ECE7FEF7C1FAA0EB0A00B84201
:103A9C00EDD37B1CEBD0D1E720236365ACE74FF073
:103AAC000209D0E74FF00209D0E72DE9F7431E4693
:103ABC0090F850300446012B0D469146DDF82880D5
:103ACC0000F0E680012380F85030FEF79FFA94F85E
:103ADC0051300746012B6268D9B20AD0B2F5827F09
:103AEC0040F0D480A368002B40F0D080042940F033
:103AFC00CD800DB901206FE0B9F1000FFAD0002E86
:103B0C00F8D094F85130C4F83890042B1CBF05231E
:103B1C0084F8513000236365C4E910332368E687C9
:103B2C00E6861968A687490658BF1968256358BFE9
:103B3C0041F04001A68658BF1960E168B1F5006FED
:103B4C0050D10AB1012E07D135F8022BDA60E38E81
:103B5C002563013B9BB2E3860125E38E9BB263B9DF
:103B6C00E38F9BB24BB93A4641462046FFF783FEA2
:103B7C0000287AD020236365BCE721688B689A07FC
:103B8C000DD5E38E9BB253B14DB10025236B33F8A9
:103B9C00022BCA602363E38E013B9BB2E3868A68E7
:103BAC0012F001020CD0E38F9BB24BB11546C968E1
:103BBC00A36B23F8021BA363E38F013B9BB2E38748
:103BCC00FEF724FAC01B4045C7D3B8F1FF3FC4D061
:103BDC000123032084F85130002384F8503003B0C3
:103BEC00BDE8F0830AB1012E08D12A781A73236B31
:103BFC0001332363E38E013B9BB2E3860125E38E05
:103C0C009BB21BB9E38F9BB2002BACD0226893689C
:103C1C009B070ED5E38E9BB25BB155B10025236B90
:103C2C001B781373236B01332363E38E013B9BB22D
:103C3C00E3862268916811F001010DD0E38F9BB2ED
:103C4C0053B10D46D268A36B1A70A36B0133A363F7
:103C5C00E38F013B9BB2E387FEF7D8F9C01B4045CD
:103C6C00CDD3B8F1FF3FCAD0B2E7A36833B923680C
:103C7C000190DA6801929B680193019B636D002BA4
:103C8C007FF438AF012384F85130A5E70220A3E775
:103C9C000220A4E72DE9F3471E4690F85130044664
:103CAC00012B8A469046DDB240F095804368B3F50F
:103CBC00827F0ED1836863B9042380F85130134698
:103CCC0000960A46FFF7F1FE0546284602B0BDE80D
:103CDC00F08794F85030012B7FD0012384F85030BA
:103CEC00FEF794F98146BAF1000F64D0B8F1000FD9
:103CFC0061D000270423A26884F85130B2F5004F3C
:103D0C006765C4E91077A4F83E802368C4F838A02E
:103D1C00A4F83C802763A786E78607D11A6822F0AF
:103D2C0040021A601A6822F480421A601A68570618
:103D3C005EBF1A6842F040021A60E368F3B1E38F89
:103D4C009BB2FBB123689A68D20738D5DA68A36BAB
:103D5C0023F8022BA363E38F013B9BB2E387EEE7CF
:103D6C0023689A68D0071AD51B7BA26B1370A36BC0
:103D7C000133A363E38F013B9BB2E387E38F9BB2D9
:103D8C00002BEDD14A4631462046FFF74DFDF8B9E0
:103D9C00636D83B901221D4684F851200BE0FEF7B8
:103DAC0035F9A0EB0900B042E8D3711CE6D0012331
:103DBC00032584F85130002384F8503085E7FEF752
:103DCC0025F9A0EB0900B042B9D3731CB7D0EEE7CC
:103DDC0020236365DCE70225EDE7022575E7026821
:103DEC0002F10C0353E8003F23F490730C3242E8C9
:103DFC00003102680029F2D102F1140353E8003FAC
:103E0C0023F0010302F1140C4CE800310029F3D12A
:103E1C00036B012B0BD102F10C0353E8003F23F091
:103E2C00100302F10C0C4CE800310029F3D12023D3
:103E3C0080F84230002303637047000010B504463D
:103E4C000368C1681A6922F440520A431A618268F5
:103E5C000069D9680243606921F4B05121F00C016A
:103E6C0002430A43DA605A69A16922F440720A4398
:103E7C005A610E4A934215D1FFF7F6FB19234343BF
:103E8C00626820689200B3FBF2F36422B3FBF2F198
:103E9C0002FB11331B013233B3FBF2F303EB0113BF
:103EAC00836010BDFFF7D0FBE8E700BF003801408E
:103EBC0010B5044648B390F8413003F0FF021BB92B
:103ECC0080F84020FDF752FF2423226884F841300B
:103EDC00D368204623F40053D360FFF7AFFF236869
:103EEC0000201A6922F490421A615A6922F02A02BF
:103EFC005A61DA6842F40052DA602023606484F874
:103F0C00413084F84230606310BD0120FCE77047FB
:103F1C00704708B50023406AC385C384FFF7F8FFD8
:103F2C0008BD704790F8423007B5222B42D181680A
:103F3C00836AB1F5805F02683FD1016900293FD1E6
:103F4C005268C2F3080223F8022B8362C38D013B33
:103F5C009BB2C385002B2DD10268D16821F02001C2
:103F6C00D160D16821F48071D160516921F00101D7
:103F7C005161202280F842204363026B012A0268BF
:103F8C0028D1036302F10C0353E8003F23F0100324
:103F9C0002F10C0C4CE800310029F3D11368DB065C
:103FAC0005D501911368019353680193019B818D91
:103FBC00FFF7B7FF03B05DF804FB39B9016929B904
:103FCC005268D2B21A70836A0133BEE7526802F0AB
:103FDC007F02F7E7FDF7F4F8ECE70000036873B530
:103FEC001A6804461607D9685D6908D1960668D523
:103FFC008D0666D502B0BDE87040FFF793BF05F0A3
:10400C00010001F4907505435BD0D60705D5CD05AD
:10401C0042BF636C43F001036364530704D518B1CA
:10402C00636C43F002036364960704D518B1636CA8
:10403C0043F004036364150707D501F02003034321
:10404C001EBF636C43F008036364636C002B32D0B7
:10405C00920604D58B0602D52046FFF763FF26682F
:10406C0020467369626C03F0400302F0080253EAC5
:10407C00020522D0FFF7B3FE73695E0618D52268DD
:10408C0002F1140353E8003F23F04003143242E8DA
:10409C0000310029F3D1E06B50B1744B4363FEF750
:1040AC0051F840B1E06B436B02B0BDE8704018476B
:1040BC002046FFF72DFF02B070BDFFF729FF6564A6
:1040CC00F9E7206B012840F09480D50640F19180EF
:1040DC00C80640F18E80002201921A6801925A683B
:1040EC000192019A5A6952064DD5E16B0A685268E1
:1040FC0092B2002ADFD0A08D9042DCD9E2858A6989
:10410C00202A36D003F10C0252E8002F22F48072E0
:10411C0003F10C0040E800210029F3D103F1140253
:10412C0052E8002F22F0010203F1140040E80021B4
:10413C000029F3D103F1140252E8002F22F04002BF
:10414C0003F1140040E800210029F3D1202284F867
:10415C004220216303F10C0252E8002F22F01002DE
:10416C0003F10C0040E800210029F3D1E06BFDF7CE
:10417C00C9FF02236363E38DA18DC91A89B220465E
:10418C00FFF7CFFE97E7E28DE08DA18D80B292B262
:10419C00002890D0891A89B200298CD003F10C0226
:1041AC0052E8002F22F4907203F10C0545E8002030
:1041BC000028F3D103F1140252E8002F22F001027F
:1041CC0003F1140545E800200028F3D1202284F8DF
:1041DC004220206303F10C0252E8002F22F010025F
:1041EC0003F10C0545E800200028F3D1022363639A
:1041FC00C5E7160628D50D0626D594F84120212AA8
:10420C007FF459AFA168226AB1F5805F17D121699B
:10421C00A9B932F8021BC1F3080159602262E28C81
:10422C00013A92B2E284002A7FF445AFDA6822F0B8
:10423C008002DA60DA6842F04002DA603BE7511C37
:10424C00216212785A60EAE750067FF534AF4A06CD
:10425C007FF531AFDA68204622F04002DA60202385
:10426C0084F84130FFF753FE25E700BF1F3F0008DD
:10427C000023C285436422238285026980F8423080
:10428C00816203681AB1DA6842F48072DA605A69A2
:10429C00002042F001025A61DA6842F02002DA6032
:1042AC00704770B490F84260202E06D141B13AB1FB
:1042BC000024046370BCFFF7DBBF022070BC7047A6
:1042CC000120FBE7024B0146186800F02BB800BF39
:1042DC0058000020024B0146186800F001B900BFDD
:1042EC005800002070B50E4E0C463168054611B9C9
:1042FC0000F0ACF830602146284600F0A7F8431CCB
:10430C000AD0C41C24F00304A04207D0211A28466A
:10431C0000F09CF8013001D14FF0FF34204670BD05
:10432C00800300202DE9F843CD1C25F0030508354A
:10433C000C2D38BF0C25002D074601DBA94205D9F1
:10434C000C2300263B603046BDE8F883DFF8D080B4
:10435C0000F068F8D8F800301C465CBB294638469B
:10436C00FFF7C0FF431C044655D1D8F80040264641
:10437C00002E45D1002C48D023683146384604EB3A
:10438C00030900F063F881453FD1216838466D1A66
:10439C002946FFF7A7FF013037D023682B44236051
:1043AC00D8F80030002B38D05A68A2422BD100220A
:1043BC005A600FE02268521B1FD40B2A17D96119BF
:1043CC00A342256018BF5960636808BFC8F8001085
:1043DC0062514B60384604F10B0600F029F826F0C8
:1043EC000706231DF21AAED09B1BA350ABE7A342CA
:1043FC006268DDD1C8F80020ECE723466468ACE7BE
:10440C0034467668B4E71346CCE70C2338463B6059
:10441C0000F00EF897E72560DCE75B60FFDE00BF7D
:10442C007C030020014800F04BB800BFC004002002
:10443C00014800F046B800BFC00400200346024407
:10444C00934200D1704703F8011BF9E738B50023FC
:10445C00054D044608462B60FDF736FD431C02D182
:10446C002B6803B1236038BDBC040020014B1868D5
:10447C00704700BF5800002070B500260C4D0D4C45
:10448C00641BA410A64209D100F072F800260A4D54
:10449C000A4C641BA410A64205D170BD55F8043B10
:1044AC0098470136EEE755F8043B98470136F2E79A
:1044BC00C8450008C8450008C8450008CC45000898
:1044CC00704770470A44914200F1FF3300D17047A6
:1044DC0010B511F8014B914203F8014FF9D110BD01
:1044EC0038B50546002940D051F8043C0C1F002B70
:1044FC00B8BFE418FFF796FF1C4A136833B9636022
:10450C0014602846BDE83840FFF792BFA34208D993
:10451C00206821188B4201BF19685B68091821605B
:10452C00EDE71A465B680BB1A342FAD91168501833
:10453C00A0420BD120680144501883421160E0D195
:10454C0018685B68084410605360DAE702D90C23E2
:10455C002B60D6E7206821188B4201BF19685B6875
:10456C000918216063605460CBE738BD7C030020E0
:10457C00F8B500BFF8BC08BC9E467047F8B500BF44
:08458C00F8BC08BC9E46704714
:1045940000000000000000000102030406070809EF
:1045A40000000000010203040203040506070809D1
:0C45B4000A0B0C0D0E0F1010010200008D
:0845C00004C1FF7F01000000AF
:0445C80031010008B5
:0445CC000D010008D5
:1045D0000024F400010000001000000000000000B2
:1045E00084030020EC03002054040020000000009D
:1045F00000000000000000000000000000000000BB
:1046000000000000000000000000000000000000AA
:10461000000000000000000000000000000000009A
:0C46200000000000000000000C00002062
:0400000508001F4987
:00000001FF
